:020000040000FA
:0400000015EF00F008
:100008000F82FACF03F0FBCF04F0F2BCA0A203D01A
:10001800A1B254EC00F004C0FBFF03C0FAFF0F923A
:10002800110094EF00F0000E8D6E000E8C6E000E25
:10003800896E000E8E6E000E8A6E000E8F6E000E98
:100048008B6E000E906E9668FE0E976E92681F0E6D
:10005800986E93689968946895680F012569246972
:1000680023691200000EB06E9E0EB36E580EB26E6B
:10007800B250B3CF08F0096A08C009F0086A08103E
:100088000D6E09500E6EA192A082380E056E010EFB
:10009800066E000E076E8DEC00F0010EB16E1200B8
:1000A800A1920DC001F00EC002F06CEC00F00A50F5
:1000B8000B100C10D8B4120001D812000500FA6E0B
:1000C8000A50FD6E0B50FE6E0C50FF6EFA50120077
:1000D800B1A407D0B1900250B36E01C0B2FFB18095
:1000E80012000250B36E01C0B2FF1200300ED36E80
:1000F800000E646E000E9B6E000E0F012A6F120038
:100108009FEC00F017EC00F07AEC00F036EC00F011
:10011800120005C00AF006C00BF007C00CF0120070
:100128000F900F92000199EF00F084EC00F0FFD7D8
:0C013800A1EC00F01200D09E120012009A
:020000040020DA
:08000000FFFFFFFFFFFFFFFF00
:020000040030CA
:0E00000015087F7CF98B91FFFFC0FFE0FF40E9
:00000001FF
