:020000040000FA
:040000001CEF00F001
:100008001282FACF03F0FBCF04F0F2AC0BD0A0B20F
:10001800A1A203D05BEC00F005D09DB29EA202D055
:1000280073EC00F004C0FBFF03C0FAFF129211004A
:10003800D3EF00F0000E8D6E000E8C6E000E896EF0
:10004800000E8E6E000E8A6E000E8F6E000E8B6E86
:10005800000E906E9668FE0E976E9268170E986E58
:1000680093689968946895680F01256924692369DC
:100078001200000EB06E9E0EB36E580EB26EB250E5
:10008800B3CF08F0096A08C009F0086A0810106EB2
:100098000950116EA192A082B60E056E010E066E71
:1000A800000E076EC5EC00F0010EB16E1200A192B1
:1000B80010C001F011C002F096EC00F00D500E10C7
:1000C8000F10D8B4120001D812000500FA6E0D50B6
:1000D800FD6E0E50FE6E0F50FF6EFA5012009E928B
:1000E8000A500B100C10D8B4120001D812000500E9
:1000F800FA6E0A50FD6E0B50FE6E0C50FF6EFA50F1
:1001080012009B0ECB6E000ECC6E9E929D82BC0E92
:10011800056E010E066E000E076ECCEC00F03D0E6B
:10012800CA6E1200B1A407D0B1900250B36E01C0DC
:10013800B2FFB18012000250B36E01C0B2FF1200CC
:10014800E1EC00F01EEC00F0BBEC00F03DEC00F040
:10015800B1EC00F085EC00F012002C0E776E070E63
:10016800786E000E796EFC0E0F012C171200300EFF
:10017800D36E000E646E000E9B6E000E0F012A6F88
:10018800120005C00DF006C00EF007C00FF01200F7
:1001980005C00AF006C00BF007C00CF01200129060
:1001A80012920001D8EF00F0A4EC00F0FFD7E3ECC6
:1001B80000F01200E4EC00F01200D09E12001200D1
:0201C800120023
:020000040020DA
:08000000FFFFFFFFFFFFFFFF00
:020000040030CA
:0E00000015087F7CF98B91FFFFC0FFE0FF40E9
:00000001FF
